{
  "contractName": "Order",
  "abi": [
    {
      "inputs": [
        {
          "internalType": "uint256",
          "name": "",
          "type": "uint256"
        },
        {
          "internalType": "uint256",
          "name": "",
          "type": "uint256"
        }
      ],
      "name": "recordMapping",
      "outputs": [
        {
          "internalType": "string",
          "name": "data",
          "type": "string"
        },
        {
          "internalType": "string",
          "name": "status",
          "type": "string"
        },
        {
          "internalType": "uint256",
          "name": "timestamp",
          "type": "uint256"
        },
        {
          "internalType": "address",
          "name": "updater",
          "type": "address"
        }
      ],
      "stateMutability": "view",
      "type": "function",
      "constant": true
    },
    {
      "inputs": [
        {
          "internalType": "uint256",
          "name": "identifier",
          "type": "uint256"
        },
        {
          "internalType": "string",
          "name": "newData",
          "type": "string"
        }
      ],
      "name": "addRecord",
      "outputs": [],
      "stateMutability": "nonpayable",
      "type": "function"
    },
    {
      "inputs": [
        {
          "internalType": "uint256",
          "name": "identifier",
          "type": "uint256"
        }
      ],
      "name": "getRecordCount",
      "outputs": [
        {
          "internalType": "uint256",
          "name": "",
          "type": "uint256"
        }
      ],
      "stateMutability": "view",
      "type": "function",
      "constant": true
    },
    {
      "inputs": [
        {
          "internalType": "uint256",
          "name": "identifier",
          "type": "uint256"
        },
        {
          "internalType": "uint256",
          "name": "index",
          "type": "uint256"
        }
      ],
      "name": "getRecord",
      "outputs": [
        {
          "internalType": "string",
          "name": "",
          "type": "string"
        },
        {
          "internalType": "uint256",
          "name": "",
          "type": "uint256"
        },
        {
          "internalType": "address",
          "name": "",
          "type": "address"
        }
      ],
      "stateMutability": "view",
      "type": "function",
      "constant": true
    },
    {
      "inputs": [
        {
          "internalType": "uint256",
          "name": "identifier",
          "type": "uint256"
        }
      ],
      "name": "getRowRecords",
      "outputs": [
        {
          "components": [
            {
              "internalType": "string",
              "name": "data",
              "type": "string"
            },
            {
              "internalType": "string",
              "name": "status",
              "type": "string"
            },
            {
              "internalType": "uint256",
              "name": "timestamp",
              "type": "uint256"
            },
            {
              "internalType": "address",
              "name": "updater",
              "type": "address"
            }
          ],
          "internalType": "struct Order.Record[]",
          "name": "",
          "type": "tuple[]"
        }
      ],
      "stateMutability": "view",
      "type": "function",
      "constant": true
    },
    {
      "inputs": [
        {
          "internalType": "uint256",
          "name": "identifier",
          "type": "uint256"
        },
        {
          "internalType": "string",
          "name": "statusStr",
          "type": "string"
        }
      ],
      "name": "updateRecord",
      "outputs": [],
      "stateMutability": "nonpayable",
      "type": "function"
    }
  ],
  "bytecode": "0x608060405234801561001057600080fd5b506115a0806100206000396000f3fe608060405234801561001057600080fd5b50600436106100625760003560e01c80631c6314661461006757806333406502146100835780634131d0e3146100b55780634b9615c5146100d15780639fd5358214610104578063f2a5744114610134575b600080fd5b610081600480360381019061007c9190610d28565b610164565b005b61009d60048036038101906100989190610d84565b610456565b6040516100ac93929190610e93565b60405180910390f35b6100cf60048036038101906100ca9190610d28565b610694565b005b6100eb60048036038101906100e69190610d84565b610807565b6040516100fb9493929190610ed1565b60405180910390f35b61011e60048036038101906101199190610f24565b610984565b60405161012b91906110e5565b60405180910390f35b61014e60048036038101906101499190610f24565b610b79565b60405161015b9190611107565b60405180910390f35b600082036101a7576040517f08c379a000000000000000000000000000000000000000000000000000000000815260040161019e9061116e565b60405180910390fd5b60008060008481526020019081526020016000206001600080868152602001908152602001600020805490506101dd91906111bd565b815481106101ee576101ed6111f1565b5b90600052602060002090600402016040518060800160405290816000820180546102179061124f565b80601f01602080910402602001604051908101604052809291908181526020018280546102439061124f565b80156102905780601f1061026557610100808354040283529160200191610290565b820191906000526020600020905b81548152906001019060200180831161027357829003601f168201915b505050505081526020016001820180546102a99061124f565b80601f01602080910402602001604051908101604052809291908181526020018280546102d59061124f565b80156103225780601f106102f757610100808354040283529160200191610322565b820191906000526020600020905b81548152906001019060200180831161030557829003601f168201915b50505050508152602001600282015481526020016003820160009054906101000a900473ffffffffffffffffffffffffffffffffffffffff1673ffffffffffffffffffffffffffffffffffffffff1673ffffffffffffffffffffffffffffffffffffffff1681525050905081816020018190525060008084815260200190815260200160002081908060018154018082558091505060019003906000526020600020906004020160009091909190915060008201518160000190816103e7919061142c565b5060208201518160010190816103fd919061142c565b506040820151816002015560608201518160030160006101000a81548173ffffffffffffffffffffffffffffffffffffffff021916908373ffffffffffffffffffffffffffffffffffffffff1602179055505050505050565b60606000806000808681526020019081526020016000208054905084106104b2576040517f08c379a00000000000000000000000000000000000000000000000000000000081526004016104a99061154a565b60405180910390fd5b600080600087815260200190815260200160002085815481106104d8576104d76111f1565b5b90600052602060002090600402016040518060800160405290816000820180546105019061124f565b80601f016020809104026020016040519081016040528092919081815260200182805461052d9061124f565b801561057a5780601f1061054f5761010080835404028352916020019161057a565b820191906000526020600020905b81548152906001019060200180831161055d57829003601f168201915b505050505081526020016001820180546105939061124f565b80601f01602080910402602001604051908101604052809291908181526020018280546105bf9061124f565b801561060c5780601f106105e15761010080835404028352916020019161060c565b820191906000526020600020905b8154815290600101906020018083116105ef57829003601f168201915b50505050508152602001600282015481526020016003820160009054906101000a900473ffffffffffffffffffffffffffffffffffffffff1673ffffffffffffffffffffffffffffffffffffffff1673ffffffffffffffffffffffffffffffffffffffff16815250509050806000015181604001518260600151935093509350509250925092565b600082036106d7576040517f08c379a00000000000000000000000000000000000000000000000000000000081526004016106ce9061116e565b60405180910390fd5b600060405180608001604052808381526020016040518060400160405280600f81526020017fe8a882e596aee89995e79086e4b8ad000000000000000000000000000000000081525081526020014281526020013373ffffffffffffffffffffffffffffffffffffffff1681525090506000808481526020019081526020016000208190806001815401808255809150506001900390600052602060002090600402016000909190919091506000820151816000019081610798919061142c565b5060208201518160010190816107ae919061142c565b506040820151816002015560608201518160030160006101000a81548173ffffffffffffffffffffffffffffffffffffffff021916908373ffffffffffffffffffffffffffffffffffffffff1602179055505050505050565b6000602052816000526040600020818154811061082357600080fd5b9060005260206000209060040201600091509150508060000180546108479061124f565b80601f01602080910402602001604051908101604052809291908181526020018280546108739061124f565b80156108c05780601f10610895576101008083540402835291602001916108c0565b820191906000526020600020905b8154815290600101906020018083116108a357829003601f168201915b5050505050908060010180546108d59061124f565b80601f01602080910402602001604051908101604052809291908181526020018280546109019061124f565b801561094e5780601f106109235761010080835404028352916020019161094e565b820191906000526020600020905b81548152906001019060200180831161093157829003601f168201915b5050505050908060020154908060030160009054906101000a900473ffffffffffffffffffffffffffffffffffffffff16905084565b6060600080838152602001908152602001600020805480602002602001604051908101604052809291908181526020016000905b82821015610b6e57838290600052602060002090600402016040518060800160405290816000820180546109eb9061124f565b80601f0160208091040260200160405190810160405280929190818152602001828054610a179061124f565b8015610a645780601f10610a3957610100808354040283529160200191610a64565b820191906000526020600020905b815481529060010190602001808311610a4757829003601f168201915b50505050508152602001600182018054610a7d9061124f565b80601f0160208091040260200160405190810160405280929190818152602001828054610aa99061124f565b8015610af65780601f10610acb57610100808354040283529160200191610af6565b820191906000526020600020905b815481529060010190602001808311610ad957829003601f168201915b50505050508152602001600282015481526020016003820160009054906101000a900473ffffffffffffffffffffffffffffffffffffffff1673ffffffffffffffffffffffffffffffffffffffff1673ffffffffffffffffffffffffffffffffffffffff1681525050815260200190600101906109b8565b505050509050919050565b6000806000838152602001908152602001600020805490509050919050565b6000604051905090565b600080fd5b600080fd5b6000819050919050565b610bbf81610bac565b8114610bca57600080fd5b50565b600081359050610bdc81610bb6565b92915050565b600080fd5b600080fd5b6000601f19601f8301169050919050565b7f4e487b7100000000000000000000000000000000000000000000000000000000600052604160045260246000fd5b610c3582610bec565b810181811067ffffffffffffffff82111715610c5457610c53610bfd565b5b80604052505050565b6000610c67610b98565b9050610c738282610c2c565b919050565b600067ffffffffffffffff821115610c9357610c92610bfd565b5b610c9c82610bec565b9050602081019050919050565b82818337600083830152505050565b6000610ccb610cc684610c78565b610c5d565b905082815260208101848484011115610ce757610ce6610be7565b5b610cf2848285610ca9565b509392505050565b600082601f830112610d0f57610d0e610be2565b5b8135610d1f848260208601610cb8565b91505092915050565b60008060408385031215610d3f57610d3e610ba2565b5b6000610d4d85828601610bcd565b925050602083013567ffffffffffffffff811115610d6e57610d6d610ba7565b5b610d7a85828601610cfa565b9150509250929050565b60008060408385031215610d9b57610d9a610ba2565b5b6000610da985828601610bcd565b9250506020610dba85828601610bcd565b9150509250929050565b600081519050919050565b600082825260208201905092915050565b60005b83811015610dfe578082015181840152602081019050610de3565b60008484015250505050565b6000610e1582610dc4565b610e1f8185610dcf565b9350610e2f818560208601610de0565b610e3881610bec565b840191505092915050565b610e4c81610bac565b82525050565b600073ffffffffffffffffffffffffffffffffffffffff82169050919050565b6000610e7d82610e52565b9050919050565b610e8d81610e72565b82525050565b60006060820190508181036000830152610ead8186610e0a565b9050610ebc6020830185610e43565b610ec96040830184610e84565b949350505050565b60006080820190508181036000830152610eeb8187610e0a565b90508181036020830152610eff8186610e0a565b9050610f0e6040830185610e43565b610f1b6060830184610e84565b95945050505050565b600060208284031215610f3a57610f39610ba2565b5b6000610f4884828501610bcd565b91505092915050565b600081519050919050565b600082825260208201905092915050565b6000819050602082019050919050565b600082825260208201905092915050565b6000610f9982610dc4565b610fa38185610f7d565b9350610fb3818560208601610de0565b610fbc81610bec565b840191505092915050565b610fd081610bac565b82525050565b610fdf81610e72565b82525050565b600060808301600083015184820360008601526110028282610f8e565b9150506020830151848203602086015261101c8282610f8e565b91505060408301516110316040860182610fc7565b5060608301516110446060860182610fd6565b508091505092915050565b600061105b8383610fe5565b905092915050565b6000602082019050919050565b600061107b82610f51565b6110858185610f5c565b93508360208202850161109785610f6d565b8060005b858110156110d357848403895281516110b4858261104f565b94506110bf83611063565b925060208a0199505060018101905061109b565b50829750879550505050505092915050565b600060208201905081810360008301526110ff8184611070565b905092915050565b600060208201905061111c6000830184610e43565b92915050565b7f4964656e7469666965722063616e6e6f74206265207a65726f00000000000000600082015250565b6000611158601983610dcf565b915061116382611122565b602082019050919050565b600060208201905081810360008301526111878161114b565b9050919050565b7f4e487b7100000000000000000000000000000000000000000000000000000000600052601160045260246000fd5b60006111c882610bac565b91506111d383610bac565b92508282039050818111156111eb576111ea61118e565b5b92915050565b7f4e487b7100000000000000000000000000000000000000000000000000000000600052603260045260246000fd5b7f4e487b7100000000000000000000000000000000000000000000000000000000600052602260045260246000fd5b6000600282049050600182168061126757607f821691505b60208210810361127a57611279611220565b5b50919050565b60008190508160005260206000209050919050565b60006020601f8301049050919050565b600082821b905092915050565b6000600883026112e27fffffffffffffffffffffffffffffffffffffffffffffffffffffffffffffffff826112a5565b6112ec86836112a5565b95508019841693508086168417925050509392505050565b6000819050919050565b600061132961132461131f84610bac565b611304565b610bac565b9050919050565b6000819050919050565b6113438361130e565b61135761134f82611330565b8484546112b2565b825550505050565b600090565b61136c61135f565b61137781848461133a565b505050565b5b8181101561139b57611390600082611364565b60018101905061137d565b5050565b601f8211156113e0576113b181611280565b6113ba84611295565b810160208510156113c9578190505b6113dd6113d585611295565b83018261137c565b50505b505050565b600082821c905092915050565b6000611403600019846008026113e5565b1980831691505092915050565b600061141c83836113f2565b9150826002028217905092915050565b61143582610dc4565b67ffffffffffffffff81111561144e5761144d610bfd565b5b611458825461124f565b61146382828561139f565b600060209050601f8311600181146114965760008415611484578287015190505b61148e8582611410565b8655506114f6565b601f1984166114a486611280565b60005b828110156114cc578489015182556001820191506020850194506020810190506114a7565b868310156114e957848901516114e5601f8916826113f2565b8355505b6001600288020188555050505b505050505050565b7f496e646578206f7574206f6620626f756e647300000000000000000000000000600082015250565b6000611534601383610dcf565b915061153f826114fe565b602082019050919050565b6000602082019050818103600083015261156381611527565b905091905056fea26469706673582212200e3fc471de2f6be8b45e0ab2d2b4f5571e08c0f900cded3c4e0ed15357908c3b64736f6c63430008130033",
  "immutableReferences": {},
  "source": "// SPDX-License-Identifier: MIT\r\npragma solidity ^ 0.8.19;\r\n\r\ncontract Order{\r\n\r\n    struct Record {\r\n        string data;\r\n        string status;\r\n        uint256 timestamp;\r\n        address updater; // \r\n    }\r\n    // mapping\r\n    mapping(uint256 => Record[]) public recordMapping;\r\n\r\n    // \r\n    function addRecord(uint256 identifier, string memory newData) public {\r\n        require(identifier != 0, \"Identifier cannot be zero\");\r\n\r\n        Record memory newRecord = Record({\r\n            data: newData,\r\n            status:unicode\"\",\r\n            timestamp: block.timestamp,\r\n            updater: msg.sender // \r\n        });\r\n\r\n        recordMapping[identifier].push(newRecord);\r\n    }\r\n\r\n    // \r\n    function getRecordCount(uint256 identifier) public view returns (uint256) {\r\n        return recordMapping[identifier].length;\r\n    }\r\n\r\n    // ()\r\n    function getRecord(uint256 identifier, uint256 index) public view returns (string memory, uint256, address) {\r\n        require(index < recordMapping[identifier].length, \"Index out of bounds\");\r\n\r\n        Record memory record = recordMapping[identifier][index];\r\n        return (record.data, record.timestamp, record.updater);\r\n    }\r\n\r\n    // \r\n    function getRowRecords(uint256 identifier) public view returns (Record[] memory) {\r\n        return recordMapping[identifier];\r\n    }\r\n\r\n    // \r\n    function updateRecord(uint256 identifier, string memory statusStr) public {\r\n        require(identifier != 0, \"Identifier cannot be zero\");\r\n        // require(index < recordMapping[identifier].length, \"Index out of bounds\");\r\n        \r\n       Record memory newRecord = recordMapping[identifier][recordMapping[identifier].length-1];\r\n       newRecord.status = statusStr;\r\n       recordMapping[identifier].push(newRecord);\r\n    }\r\n}",
  "sourcePath": "C:\\Users\\user\\Documents\\BC-Proj\\contracts\\Order.sol",
  "compiler": {
    "name": "solc",
    "version": "0.8.19+commit.7dd6d404.Emscripten.clang"
  },
  "schemaVersion": "3.4.16",
  "updatedAt": "2023-12-12T11:29:39.532Z",
  "networkType": "ethereum",
  "devdoc": {
    "kind": "dev",
    "methods": {},
    "version": 1
  },
  "userdoc": {
    "kind": "user",
    "methods": {},
    "version": 1
  }
}